:020000040000FA
:0400000003EF00F01A
:020004000000FA
:0A000600006A016A956A94809482F2
:10001000836A82B001D003D082B203D004D007D06B
:100020000AD009EF00F01DEC00F009EF00F02AEC17
:1000300000F009EF00F009EF00F037EC00F037ECCA
:1000400000F037EC00F037EC00F037EC00F082B055
:10005000832A120037EC00F037EC00F037EC00F0A8
:1000600037EC00F037EC00F082B283061200C80EC5
:10007000016E46EC00F046EC00F046EC00F046EC79
:1000800000F046EC00F0012EF4D71200300E006EA6
:080090000000002EFDD7120054
:020000040030CA
:0100010000FE
:010003001EDE
:010006008178
:00000001FF
